{
  "contractName": "LegalRecords",
  "abi": [
    {
      "inputs": [
        {
          "internalType": "string",
          "name": "",
          "type": "string"
        }
      ],
      "name": "records",
      "outputs": [
        {
          "internalType": "string",
          "name": "id",
          "type": "string"
        },
        {
          "internalType": "string",
          "name": "hash",
          "type": "string"
        },
        {
          "internalType": "address",
          "name": "owner",
          "type": "address"
        },
        {
          "internalType": "uint256",
          "name": "timestamp",
          "type": "uint256"
        }
      ],
      "stateMutability": "view",
      "type": "function"
    },
    {
      "inputs": [
        {
          "internalType": "string",
          "name": "id",
          "type": "string"
        },
        {
          "internalType": "string",
          "name": "hash",
          "type": "string"
        }
      ],
      "name": "addRecord",
      "outputs": [],
      "stateMutability": "nonpayable",
      "type": "function"
    },
    {
      "inputs": [
        {
          "internalType": "string",
          "name": "id",
          "type": "string"
        }
      ],
      "name": "getRecord",
      "outputs": [
        {
          "components": [
            {
              "internalType": "string",
              "name": "id",
              "type": "string"
            },
            {
              "internalType": "string",
              "name": "hash",
              "type": "string"
            },
            {
              "internalType": "address",
              "name": "owner",
              "type": "address"
            },
            {
              "internalType": "uint256",
              "name": "timestamp",
              "type": "uint256"
            }
          ],
          "internalType": "struct LegalRecords.Record",
          "name": "",
          "type": "tuple"
        }
      ],
      "stateMutability": "view",
      "type": "function"
    }
  ],
  "bytecode": "0x608060405234801561000f575f80fd5b50610df28061001d5f395ff3fe608060405234801561000f575f80fd5b506004361061003f575f3560e01c806311dd884514610043578063541e771d14610073578063c9596248146100a6575b5f80fd5b61005d60048036038101906100589190610707565b6100c2565b60405161006a9190610886565b60405180910390f35b61008d60048036038101906100889190610707565b6102d9565b60405161009d949392919061090c565b60405180910390f35b6100c060048036038101906100bb919061095d565b610447565b005b6100ca61057e565b5f80836040516100da9190610a0d565b9081526020016040518091039020600301540361012c576040517f08c379a000000000000000000000000000000000000000000000000000000000815260040161012390610a6d565b60405180910390fd5b5f8260405161013b9190610a0d565b90815260200160405180910390206040518060800160405290815f8201805461016390610ab8565b80601f016020809104026020016040519081016040528092919081815260200182805461018f90610ab8565b80156101da5780601f106101b1576101008083540402835291602001916101da565b820191905f5260205f20905b8154815290600101906020018083116101bd57829003601f168201915b505050505081526020016001820180546101f390610ab8565b80601f016020809104026020016040519081016040528092919081815260200182805461021f90610ab8565b801561026a5780601f106102415761010080835404028352916020019161026a565b820191905f5260205f20905b81548152906001019060200180831161024d57829003601f168201915b50505050508152602001600282015f9054906101000a900473ffffffffffffffffffffffffffffffffffffffff1673ffffffffffffffffffffffffffffffffffffffff1673ffffffffffffffffffffffffffffffffffffffff1681526020016003820154815250509050919050565b5f818051602081018201805184825260208301602085012081835280955050505050505f91509050805f01805461030f90610ab8565b80601f016020809104026020016040519081016040528092919081815260200182805461033b90610ab8565b80156103865780601f1061035d57610100808354040283529160200191610386565b820191905f5260205f20905b81548152906001019060200180831161036957829003601f168201915b50505050509080600101805461039b90610ab8565b80601f01602080910402602001604051908101604052809291908181526020018280546103c790610ab8565b80156104125780601f106103e957610100808354040283529160200191610412565b820191905f5260205f20905b8154815290600101906020018083116103f557829003601f168201915b505050505090806002015f9054906101000a900473ffffffffffffffffffffffffffffffffffffffff16908060030154905084565b5f80836040516104579190610a0d565b908152602001604051809103902060030154146104a9576040517f08c379a00000000000000000000000000000000000000000000000000000000081526004016104a090610b32565b60405180910390fd5b60405180608001604052808381526020018281526020013373ffffffffffffffffffffffffffffffffffffffff168152602001428152505f836040516104ef9190610a0d565b90815260200160405180910390205f820151815f0190816105109190610ced565b5060208201518160010190816105269190610ced565b506040820151816002015f6101000a81548173ffffffffffffffffffffffffffffffffffffffff021916908373ffffffffffffffffffffffffffffffffffffffff160217905550606082015181600301559050505050565b604051806080016040528060608152602001606081526020015f73ffffffffffffffffffffffffffffffffffffffff1681526020015f81525090565b5f604051905090565b5f80fd5b5f80fd5b5f80fd5b5f80fd5b5f601f19601f8301169050919050565b7f4e487b71000000000000000000000000000000000000000000000000000000005f52604160045260245ffd5b610619826105d3565b810181811067ffffffffffffffff82111715610638576106376105e3565b5b80604052505050565b5f61064a6105ba565b90506106568282610610565b919050565b5f67ffffffffffffffff821115610675576106746105e3565b5b61067e826105d3565b9050602081019050919050565b828183375f83830152505050565b5f6106ab6106a68461065b565b610641565b9050828152602081018484840111156106c7576106c66105cf565b5b6106d284828561068b565b509392505050565b5f82601f8301126106ee576106ed6105cb565b5b81356106fe848260208601610699565b91505092915050565b5f6020828403121561071c5761071b6105c3565b5b5f82013567ffffffffffffffff811115610739576107386105c7565b5b610745848285016106da565b91505092915050565b5f81519050919050565b5f82825260208201905092915050565b5f5b8381101561078557808201518184015260208101905061076a565b5f8484015250505050565b5f61079a8261074e565b6107a48185610758565b93506107b4818560208601610768565b6107bd816105d3565b840191505092915050565b5f73ffffffffffffffffffffffffffffffffffffffff82169050919050565b5f6107f1826107c8565b9050919050565b610801816107e7565b82525050565b5f819050919050565b61081981610807565b82525050565b5f608083015f8301518482035f8601526108398282610790565b915050602083015184820360208601526108538282610790565b915050604083015161086860408601826107f8565b50606083015161087b6060860182610810565b508091505092915050565b5f6020820190508181035f83015261089e818461081f565b905092915050565b5f82825260208201905092915050565b5f6108c08261074e565b6108ca81856108a6565b93506108da818560208601610768565b6108e3816105d3565b840191505092915050565b6108f7816107e7565b82525050565b61090681610807565b82525050565b5f6080820190508181035f83015261092481876108b6565b9050818103602083015261093881866108b6565b905061094760408301856108ee565b61095460608301846108fd565b95945050505050565b5f8060408385031215610973576109726105c3565b5b5f83013567ffffffffffffffff8111156109905761098f6105c7565b5b61099c858286016106da565b925050602083013567ffffffffffffffff8111156109bd576109bc6105c7565b5b6109c9858286016106da565b9150509250929050565b5f81905092915050565b5f6109e78261074e565b6109f181856109d3565b9350610a01818560208601610768565b80840191505092915050565b5f610a1882846109dd565b915081905092915050565b7f5265636f726420646f6573206e6f7420657869737400000000000000000000005f82015250565b5f610a576015836108a6565b9150610a6282610a23565b602082019050919050565b5f6020820190508181035f830152610a8481610a4b565b9050919050565b7f4e487b71000000000000000000000000000000000000000000000000000000005f52602260045260245ffd5b5f6002820490506001821680610acf57607f821691505b602082108103610ae257610ae1610a8b565b5b50919050565b7f5265636f726420616c72656164792065786973747300000000000000000000005f82015250565b5f610b1c6015836108a6565b9150610b2782610ae8565b602082019050919050565b5f6020820190508181035f830152610b4981610b10565b9050919050565b5f819050815f5260205f209050919050565b5f6020601f8301049050919050565b5f82821b905092915050565b5f60088302610bac7fffffffffffffffffffffffffffffffffffffffffffffffffffffffffffffffff82610b71565b610bb68683610b71565b95508019841693508086168417925050509392505050565b5f819050919050565b5f610bf1610bec610be784610807565b610bce565b610807565b9050919050565b5f819050919050565b610c0a83610bd7565b610c1e610c1682610bf8565b848454610b7d565b825550505050565b5f90565b610c32610c26565b610c3d818484610c01565b505050565b5b81811015610c6057610c555f82610c2a565b600181019050610c43565b5050565b601f821115610ca557610c7681610b50565b610c7f84610b62565b81016020851015610c8e578190505b610ca2610c9a85610b62565b830182610c42565b50505b505050565b5f82821c905092915050565b5f610cc55f1984600802610caa565b1980831691505092915050565b5f610cdd8383610cb6565b9150826002028217905092915050565b610cf68261074e565b67ffffffffffffffff811115610d0f57610d0e6105e3565b5b610d198254610ab8565b610d24828285610c64565b5f60209050601f831160018114610d55575f8415610d43578287015190505b610d4d8582610cd2565b865550610db4565b601f198416610d6386610b50565b5f5b82811015610d8a57848901518255600182019150602085019450602081019050610d65565b86831015610da75784890151610da3601f891682610cb6565b8355505b6001600288020188555050505b50505050505056fea264697066735822122014eacc70124d3de1b7f4311d42e922431e98fabc7665eee70a0817d41413538064736f6c63430008150033",
  "immutableReferences": {},
  "source": "// SPDX-License-Identifier: MIT\r\npragma solidity ^0.8.0;\r\n\r\ncontract LegalRecords {\r\n    struct Record {\r\n        string id;\r\n        string hash;\r\n        address owner;\r\n        uint timestamp;\r\n    }\r\n\r\n    mapping(string => Record) public records;\r\n\r\n    function addRecord(string memory id, string memory hash) public {\r\n        require(records[id].timestamp == 0, \"Record already exists\");\r\n        records[id] = Record(id, hash, msg.sender, block.timestamp);\r\n    }\r\n\r\n    function getRecord(string memory id) public view returns (Record memory) {\r\n        require(records[id].timestamp != 0, \"Record does not exist\");\r\n        return records[id];\r\n    }\r\n}\r\n",
  "sourcePath": "D:\\PSGCT\\evault\\contracts\\LegalRecords.sol",
  "compiler": {
    "name": "solc",
    "version": "0.8.21+commit.d9974bed.Emscripten.clang"
  },
  "schemaVersion": "3.4.16",
  "updatedAt": "2024-07-13T15:37:42.763Z",
  "devdoc": {
    "kind": "dev",
    "methods": {},
    "version": 1
  },
  "userdoc": {
    "kind": "user",
    "methods": {},
    "version": 1
  }
}